:100000000C9434000C9446000C9446000C9446006A
:100010000C9446000C9446000C9446000C94460048
:100020000C9446000C9446000C9446000C94460038
:100030000C9446000C9446000C9446000C94460028
:100040000C9446000C9418010C9446000C94460045
:100050000C9446000C9446000C9446000C94460008
:100060000C9446000C94460011241FBECFEFD8E03C
:10007000DEBFCDBF21E0A0E0B1E001C01D92A930FC
:10008000B207E1F70E94C7000C9446010C940000EF
:1000900094EA9093BC009091BC009923E4F790916E
:1000A000B900987F983091F48093BB0084E88093E6
:1000B000BC008091BC008823E4F78091B900887F60
:1000C000883131F0803231F482E0089580E0089583
:1000D00081E0089583E0089594EA9093BC009091A4
:1000E000BC009923E4F79091B900987F903191F486
:1000F0008093BB0084E88093BC008091BC0088237F
:10010000E4F78091B900887F803431F0883431F48D
:1001100082E0089580E0089581E0089583E00895E5
:100120008093BB0084E88093BC008091BC0088234E
:10013000E4F78091B900887F883221F0803321F480
:1001400081E0089580E0089582E0089584E9809335
:10015000BC008091BC0084FDFCCF089584EC8093AA
:10016000BC008091BC008823E4F78091BB00089517
:1001700084E88093BC008091BC008823E4F78091E0
:10018000BB0008958EBD0DB407FEFDCF089584B168
:10019000837D84B984B1806184B980E48CBD80E8BA
:1001A0008CBD78941092B9008EEF8093B80086E3EE
:1001B0000E9448008DE00E9490000E94A60080E00E
:1001C0008A3010F48F5FFCCF86E30E946C00C0E0A1
:1001D000D0E0C230D1057CF4209721F40E94AE001B
:1001E00080930801C130D10521F40E94AE008093B4
:1001F00007012196EECF0E94B8000E94A6008091D0
:100200000801282F30E030930501209304019091DC
:100210000701892F90E09093030180930201982FAA
:100220008827822B932B9093010180930001BACFF2
:100230001F920F920FB60F9211242F933F934F935B
:100240005F936F937F938F939F93AF93BF93EF933E
:10025000FF93809108010E94C200809107010E94D3
:10026000C200809106010E94C200FF91EF91BF91F0
:10027000AF919F918F917F916F915F914F913F913E
:100280002F910F900FBE0F901F901895F894FFCFED
:00000001FF
